:100000000C9429010C9451010C9451010C94790524
:100010000C949D050C94C1050C9451010C94510154
:100020000C9451010C9451010C9451010C94510108
:100030000C9451010C9451010C9451010C945101F8
:100040000C9434070C9451010C94A7090C94E30907
:100050000C9451010C9451010C9451010C945101D8
:100060000C9451010C94510100C2010001001100D7
:1000700011000C0000E100000A002500250021000D
:10008000009600001900390039003600127A00008D
:100090001F004600460044008070000022004D0012
:1000A0004D004A00004B00003600750075007200DC
:1000B000403800004A009C009C0099008025000008
:1000C0007200EC00EC00E900C0120000E900DA0167
:1000D000DA01D70160090000D701B603B603B30304
:1000E000B0040000B3036E076E076B072C0100001D
:1000F000DC0EC11DC11DBE1D000000070002010075
:1001000000030406000000000000000001020408D3
:100110001020408001020408102001020408102071
:10012000040404040404040402020202020203039D
:100130000303030300000000230026002900000041
:100140000000250028002B000000000024002700EC
:100150002A0000407A10F35A00A0724E18090010CD
:10016000A5D4E80000E87648170000E40B5402002C
:1001700000CA9A3B000000E1F50500008096980057
:10018000000040420F000000A08601000000102780
:1001900000000000E8030000000064000000000010
:1001A0000A00000000000100000000002C76D88842
:1001B000DC674F0823DFC1DFAE59E1B1B796E5E355
:1001C000E453C63AE651997696E8E6C28426EB896E
:1001D0008C9B62ED407C6FFCEFBC9C9F40F2BAA50B
:1001E0006FA5F490055A2AF75C936B6CF9676DC1A3
:1001F0001BFCE0E40D47FEF520E6B500D0ED902EA7
:100200000300943577050080841E080000204E0A04
:10021000000000C80C333333330F986E1283114142
:10022000EF8D2114893BE65516CFFEE6DB18D1840D
:100230004B381BF77C1D901DA4BBE4242032847234
:100240005E228100C9F124ECA1E53D27FF039E0A4F
:10025000060411241FBECFEFD8E0DEBFCDBF12E0F1
:10026000A0E0B1E0EEE4F7E202C005900D92A63105
:10027000B107D9F713E0A6E1B2E001C01D92AE329A
:10028000B107E1F712E0C0E5D2E004C02297FE0119
:100290000E94AB0ECC34D107C9F70E94FE080C9423
:1002A0009A130C94000040E855E260E070E083E8A7
:1002B00092E00E941E0A40E855E260E070E08AE1A8
:1002C00092E00E94630661E080911E010E94660830
:1002D00061E0809120010E94660861E08091220126
:1002E0000E94660861E0809124010E94660860E037
:1002F000809116010E94660860E0809118010E94BA
:10030000660860E080911A010E94660860E08091B2
:100310001C010C9466080E941B0825E0AC01249F78
:10032000C001259F900D112497FF02C081509C4F62
:10033000BC01672F770F770B65956595882777FD4B
:100340008095982F0E94700D20E030E040E85FE338
:100350000E94090D20E030E040E85EE30E94FC0DC1
:100360002AE037ED43E25EE30E94FC0D08950E940F
:100370001B0825E0AC01249FC001259F900D11248E
:1003800097FF02C081509C4FBC01672F770F770BFE
:1003900065956595882777FD8095982F0E94700D4B
:1003A00020E030E040E85FE30E94090D20E030E00B
:1003B00040E85EE30E94FC0D20E030E040E752E4BC
:1003C0000E94FC0D08952F923F924F925F926F9280
:1003D0007F928F929F92AF92BF92CF92DF92EF92D5
:1003E000FF920F931F93CF93DF93CDB7DEB7CA551C
:1003F000D1090FB6F894DEBF0FBECDBF26E0222E86
:1004000021E0322E8EE091E065969FAF8EAF65972A
:100410003EE1C32E31E0D32E46E1842E41E0942EFE
:10042000A12CB12C01C0530167E271E0CE0101960D
:100430000E94EE0BBE016F5F7F4FCE010F960E94B0
:10044000220CB501CE010F960E94E70CBC0183E897
:1004500092E00E94690BCE010F960E947D0BCE01A7
:1004600001960E947D0B6B96DFAECEAE6B9760E07F
:10047000F60180810E949E080E947E07609316020A
:100480007093170280931802909319026DE371E044
:10049000CE0101960E94EE0BBE016F5F7F4FCE0131
:1004A0000F960E94220C60E070E0CE010F960E9431
:1004B000E70CBC0183E892E00E94690BCE010F9625
:1004C0000E947D0BCE0101960E947D0BE12CF12C48
:1004D0002EC0F40180810E94D508019741F5FAE011
:1004E000EF0EF11C69E671E0CE0101960E94EE0B61
:1004F000BE016F5F7F4FCE010F960E94220CB701A5
:10050000CE010F960E94E70CBC0183E892E00E94A6
:10051000690BCE010F960E947D0BCE0101960E94C1
:100520007D0B60ED77E080E090E00E94BA070E94CA
:100530007E072091160230911702621B730B77FF22
:1005400003C0719561957109603E734914F2F10120
:10055000819191911F010E94B70169966CAF7DAFA7
:100560008EAF9FAF69976596EEADFFAD65978191B0
:1005700091916596FFAFEEAF65970E948B012B01BD
:100580003C018E01035B1F4F23E046E069966CAD92
:100590007DAD8EAD9FAD69970E94AF0E8E01095B58
:1005A0001F4F23E046E0C301B2010E94AF0E4AE0B4
:1005B000B701CE0101960E94460C67E971E0CE01B9
:1005C00008960E94EE0BB801CE0146960E94EE0BF3
:1005D0006BE971E0CE014D960E94EE0BBE01635BAC
:1005E0007F4FCE0184960E94EE0B6FE971E0CE0141
:1005F0008B960E94EE0B3501FFEF6F1A7F0A4AE0DF
:10060000B301CE01C2960E94460C63EA71E0CE01AE
:10061000C9960E94EE0BBE01675C7F4FCE010F961C
:100620000E94220CBE016E5C7F4FCE010F960E948D
:10063000D10CBE01655D7F4F0E94D10CBE016C5D87
:100640007F4F0E94D10CBE01635E7F4F0E94D10C90
:10065000BE016A5E7F4F0E94D10CBE01685F7F4F72
:100660000E94D10CBE016F5F7F4F0E94D10CBC0174
:10067000CE01805C9F4F0E94220CCE010F960E94FB
:100680007D0BCE01C9960E947D0BCE01C2960E94C1
:100690007D0BCE018B960E947D0BCE0184960E942D
:1006A0007D0BCE014D960E947D0BCE0146960E9499
:1006B0007D0BCE0108960E947D0BCE0101960E9413
:1006C0007D0B6CEA71E0CE0101960E94EE0BBE013B
:1006D0006F5F7F4FCE010F960E94220CBE01605CBF
:1006E0007F4FCE010F960E94D10CBC0183E892E0AF
:1006F0000E94690BCE010F960E947D0BCE010196E0
:100700000E947D0BBE01605C7F4F8AE192E00E94F7
:10071000690B6FEC71E0CE0101960E94EE0B61ED6A
:1007200071E0CE0108960E94EE0B6DED71E0CE01F6
:1007300046960E94EE0BBE016A5E7F4FCE010F9679
:100740000E94220CB501CE010F960E94E70CBE015B
:10075000685F7F4F0E94D10CB7010E94E70CBE0179
:100760006F5F7F4F0E94D10CBC0183E892E00E9432
:10077000690BCE010F960E947D0BCE0146960E941A
:100780007D0BCE0108960E947D0BCE0101960E9442
:100790007D0B82E0C80ED11C61E06B96EEADFFAD23
:1007A0006B9780810E949E0883E892E00E94530B21
:1007B000CE01805C9F4F0E947D0BF2E08F0E911C5A
:1007C00084E06816710409F02ECEC65ADF4F0FB6CA
:1007D000F894DEBF0FBECDBFDF91CF911F910F9177
:1007E000FF90EF90DF90CF90BF90AF909F908F9051
:1007F0007F906F905F904F903F902F90089520E0F2
:100800004BE06AE08AE192E00C9433068AE192E0E0
:100810000C942D072091780230917902281739071E
:10082000C1F49091360280913702981791F0E091CF
:100830003602F0E0E85CFD4F80812091360230E026
:100840002F5F3F4F2F73332720933602282F30E03E
:1008500002C02FEF3FEFC901089520917802309137
:1008600079022817390781F4909136028091370276
:10087000981751F0E0913602F0E0E85CFD4F2081DE
:10088000332727FD309502C02FEF3FEFC9010895B0
:1008900020917802309179022817390739F48FB7FF
:1008A000F89410923702109236028FBF089520916B
:1008B0007802309179022817390779F4809137024C
:1008C0002091360290E0805C9F4F821B910960E48A
:1008D00070E00E945F0E9C0102C020E030E0C90180
:1008E0000895DC015196ED91FC915297208150962C
:1008F0008C91809582238083089520E001972FEFCB
:100900008F3F9207D9F708952091780230917902AC
:100910002817390789F0FC01238D2E7F238F2FB7ED
:10092000F8941092370210923602909379028093D5
:1009300078022FBF81E0089580E00895EF92FF9242
:100940000F931F93CF93DF93EC018B8DEE85FF8583
:100950009D8581FF04C08081892329F445C0808161
:10096000892309F041C08B899C890E947D0408E09D
:1009700010E0EE24E394F12C8D899E890E947D0481
:10098000EE85FF8580819D85892311F0FE2803C0B7
:100990008E2D8095F822EE0C0150110969F78F8990
:1009A000988D0E947D048B8D81FDF094809137029B
:1009B0002091360290E001968F73992730E08217DC
:1009C000930779F0E0913702F0E0E85CFD4FF082A8
:1009D0008091370290E001968F73992780933702B8
:1009E00003C08B8D81608B8FDF91CF911F910F9111
:1009F000FF90EF900895611102C00C947104DC0126
:100A00005196ED91FC915297208150968C91282B14
:100A100020830895DF92EF92FF920F931F93CF935D
:100A2000DF93EC01E62E898D9A8D892B39F481E0D4
:100A300090E09B838A8320E030E049C0DFB6F894E1
:100A40006B8D66956170CE010E94FB04898D9A8D35
:100A500005960E947D048B8D08E010E0FF24F3943E
:100A600081FF17C08F2D8E2121F0CE010E947104CD
:100A700004C061E0CE010E94FB04898D9A8D0E9422
:100A80007D04FF0C0150110969F7CE010E94710429
:100A900017C08F2D8E2129F061E0CE010E94FB044A
:100AA00003C0CE010E947104898D9A8D0E947D043D
:100AB000FF0C0150110969F761E0CE010E94FB04AF
:100AC000DFBE898D9A8D0E947D0421E030E0C9014E
:100AD000DF91CF911F910F91FF90EF90DF900895DC
:100AE0008091780290917902009711F00C949E0405
:100AF00008951F920F920FB60F9211242F933F93D8
:100B00004F935F936F937F938F939F93AF93BF9315
:100B1000EF93FF930E947005FF91EF91BF91AF910A
:100B20009F918F917F916F915F914F913F912F9105
:100B30000F900FBE0F901F9018951F920F920FB637
:100B40000F9211242F933F934F935F936F937F9353
:100B50008F939F93AF93BF93EF93FF930E94700582
:100B6000FF91EF91BF91AF919F918F917F916F9185
:100B70005F914F913F912F910F900FBE0F901F905B
:100B800018951F920F920FB60F9211242F933F9337
:100B90004F935F936F937F938F939F93AF93BF9385
:100BA000EF93FF930E947005FF91EF91BF91AF917A
:100BB0009F918F917F916F915F914F913F912F9175
:100BC0000F900FBE0F901F9018951F93CF93DF9338
:100BD000EC01162F61E0812F0E94660861E0812FF1
:100BE0000E949E08812F90E0FC01E45FFE4FE4919B
:100BF000E88BFC01E05EFE4FE491F0E0EE0FFF1F9A
:100C0000E25CFE4F85919491898B9A8BDF91CF9115
:100C10001F9108951F93CF93DF93EC01162F60E08F
:100C2000812F0E9466088B8D81FD04C061E0812FB9
:100C30000E949E081C87812F90E0FC01E45FFE4F1C
:100C4000E491ED87FC01E05EFE4FE491F0E0EE0FF1
:100C5000FF1FEC5CFE4F859194918E879F87DF91FB
:100C6000CF911F910895FF920F931F93CF93DF931E
:100C7000EC01F62E522F1B821A8208EE13E020E0C0
:100C800030E00C831D832E833F838AEF91E09983AC
:100C900088831C8A1B8A1E8A1D8A188E1F8A1A8EB8
:100CA000198E8B8D8E7F50FB81F98B8F642FCE0137
:100CB0000E94E5056F2DCE01DF91CF911F910F911D
:100CC000FF900C940A06FF920F931F93CF93DF932C
:100CD000EC011A8E198E188E1F8A1E8A1D8A1C8A94
:100CE0001B8AA0E0B0E02CE0F22EFA9EC001FB9E31
:100CF000900D1124FC01E859FF4F059115912591A4
:100D000034910417150726073707E9F4FC01E45965
:100D1000FF4F259134912B8B3C8BFC01E259FF4F07
:100D2000259134912D8B3E8BFC01E059FF4F25918D
:100D300034912F8B388F8E589F4FFC018591949161
:100D4000898F9A8F05C01196AC30B10509F0CDCFCF
:100D50008F89988D892B09F449C03C85363108F07C
:100D600041C040916800383068F081E090E03E304A
:100D700010F480E090E021E030E001C0220F8A957D
:100D8000EAF701C024E0242B209368003C8538302A
:100D900038F03E3040F0363148F0E0E0F0E008C096
:100DA000EDE6F0E005C0EBE6F0E002C0ECE6F0E0D6
:100DB0004081383040F481E090E0282F01C0220FBC
:100DC0003A95EAF70DC0832F90E03E3010F4089773
:100DD00001C00E9721E030E001C0220F8A95EAF7AA
:100DE000242B2083898D9A8D0E947D04CE01DF9172
:100DF000CF911F910F91FF900C948404FC014485C6
:100E0000463150F5483028F04E3030F4EBE6F0E053
:100E100005C0EDE6F0E002C0ECE6F0E050814830BD
:100E200040F481E090E0042E01C0880F0A94EAF7B4
:100E300010C0242F30E04E3018F42850310902C081
:100E40002E50310981E090E0022E01C0880F0A94F3
:100E5000EAF780958523808308952AEF31E0FC012D
:100E6000318320830C94FE061F920F920FB60F92CF
:100E700011242F933F938F939F93AF93BF938091B0
:100E80007A0290917B02A0917C02B0917D02309118
:100E90008202232F2D5F2D3720F40196A11DB11D55
:100EA00005C0232F2A570296A11DB11D209382024F
:100EB00080937A0290937B02A0937C02B0937D0290
:100EC00080917E0290917F02A0918002B091810278
:100ED0000196A11DB11D80937E0290937F02A09385
:100EE0008002B0938102BF91AF919F918F913F910A
:100EF0002F910F900FBE0F901F9018950F931F9377
:100F00008FB7F89400917A0210917B0220917C02B5
:100F100030917D028FBFB801C9011F910F910895D3
:100F20000F931F939FB7F89400917E0210917F0258
:100F3000209180023091810286B5A89B06C08F3F28
:100F400021F00F5F1F4F2F4F3F4F9FBF322F212F99
:100F5000102F0027080F111D211D311D42E0000F29
:100F6000111F221F331F4A95D1F7B801C9011F91E4
:100F70000F910895CF92DF92EF92FF92CF93DF937C
:100F80006B017C010E949007EB010EC00E9490074C
:100F90006C1B7D0B683E734038F081E0C81AD108A5
:100FA000E108F108C851DC4FC114D104E104F10497
:100FB00069F7DF91CF91FF90EF90DF90CF90089588
:100FC000789484B5826084BD84B5816084BD85B524
:100FD000826085BD85B5816085BDEEE6F0E08081EB
:100FE00081608083E1E8F0E010828081826080830C
:100FF000808181608083E0E8F0E08081816080838F
:10100000E1EBF0E0808184608083E0EBF0E08081C0
:1010100081608083EAE7F0E0808184608083808162
:10102000826080838081816080838081806880830A
:101030001092C10008958E3008F08E508770209174
:10104000260140E4249F90011124822B80937C0090
:1010500080917A00806480937A0080917A0086FD86
:10106000FCCF2091780030917900932F80E0AC0183
:10107000422B9A01C9010895833069F028F4813028
:10108000A1F0823011F514C08630B1F08730C1F084
:101090008430D9F404C0809180008F7703C08091A0
:1010A00080008F7D80938000089584B58F7702C083
:1010B00084B58F7D84BD08958091B0008F7703C083
:1010C0008091B0008F7D8093B0000895CF93DF931F
:1010D00090E0FC01E45FFE4F4491FC01E05EFE4FB6
:1010E0008491882341F190E0880F991FFC01E85B0F
:1010F000FE4F25913491D901825C9E4FFC01859170
:101100009491C82FD92F9FB7F8948C91611106C084
:10111000409584238C938881842308C0623041F4F5
:10112000242F209582238C938881842B888302C06E
:10113000842B8C939FBFDF91CF9108950F931F93C2
:10114000CF93DF931F92CDB7DEB7282F30E0F901A0
:10115000E850FF4F8491F901E45FFE4F1491F901CB
:10116000E05EFE4F04910023D1F0882321F06983D3
:101170000E943C086981E02FF0E0EE0FFF1FE25C67
:10118000FE4F85919491DC019FB7F8948C91611189
:1011900003C01095812301C0812B8C939FBF0F90BA
:1011A000DF91CF911F910F910895CF93DF93282F57
:1011B00030E0F901E850FF4F8491F901E45FFE4F00
:1011C000D491F901E05EFE4FC491CC2389F08111E6
:1011D0000E943C08EC2FF0E0EE0FFF1FEC5CFE4F8E
:1011E00085919491DC018C918D2321E030E011F404
:1011F00020E030E0C901DF91CF9108950E94E0071F
:101200000E945301CAEDD9E00E94E3012097E1F367
:101210000E94DA09F9CFFC0184859585FC01E05C28
:10122000FF4F20813181FC01EE5BFF4F8081918176
:10123000281B390B2F733327C9010895FC018485BE
:101240009585FC01E05CFF4F40815181FC01EE5B24
:10125000FF4F208131814217530741F00190F08107
:10126000E02DE80FF91F208130E002C02FEF3FEFA3
:10127000C9010895FC0184859585FC01E05CFF4F60
:1012800040815181FC01EE5BFF4F2081318142178B
:10129000530781F0A081B181A80FB91F8C912081E3
:1012A00031812F5F3F4F2F73332731832083282FC6
:1012B00030E002C02FEF3FEFC9010895FC018685A1
:1012C0009785FC01E05CFF4FDC01AE5BBF4F4081C6
:1012D00051812D913C91119742175307C1F7089501
:1012E000CF93DF93FC0186859785DC01A05CBF4F1F
:1012F0002D913C9111972F5F3F4F2F733327EC01B6
:10130000CE5BDF4F4881598124173507D9F30D9003
:10131000BC91A02DA80FB91F6C93A685B785A05CC2
:10132000BF4F11963C932E93A689B7892C9181E0EB
:1013300090E0058C02C0880F991F0A94E2F7282BD1
:101340002C9381E090E0DF91CF91089508951F9252
:101350000F920FB60F9211242F933F934F938F93B9
:101360009F93EF93FF934091C60080912603909145
:10137000270301968F739927209128033091290321
:101380008217930759F0E0912603F0912703EA5161
:10139000FD4F40839093270380932603FF91EF91A5
:1013A0009F918F914F913F912F910F900FBE0F9072
:1013B0001F90189583E892E00E940B09892B11F089
:1013C0000C94A60908951F920F920FB60F92112444
:1013D0002F933F938F939F93EF93FF932091E2027C
:1013E0003091E3028091E4029091E50228173907D9
:1013F00031F48091C1008F7D8093C10014C0E091D1
:10140000E402F091E502EE55FD4F20818091E40267
:101410009091E50201968F7399279093E50280934E
:10142000E4022093C600FF91EF919F918F913F912D
:101430002F910F900FBE0F901F901895CF92DF92B3
:10144000EF92FF92CF93DF93EC016A017B0141158C
:1014500081EE580761057105F9F0EC89FD8981E09D
:1014600090E00E8C02C0880F991F0A94E2F78083E7
:1014700060E079E08DE390E0A70196010E94730E91
:1014800021503109410951095695479537952795BE
:10149000211580E1380798F0EC89FD89108260E819
:1014A00074E88EE190E0A70196010E94730E21502E
:1014B0003109410951095695479537952795E8898E
:1014C000F9893083EA89FB892083EE89FF8940818D
:1014D00081E090E09C010A8C02C0220F331F0A9425
:1014E000E2F7422B4083EE89FF8940819C010B8CFF
:1014F00002C0220F331F0A94E2F7422B4083EE8989
:10150000FF8940819C010C8C02C0220F331F0A947A
:10151000E2F7422B4083EE89FF8920810D8C02C0C7
:10152000880F991F0A94E2F7809582238083DF91C8
:10153000CF91FF90EF90DF90CF90089510928602A8
:101540001092850288EE93E0A0E0B0E080938702DD
:1015500090938802A0938902B0938A028AE092E075
:10156000909384028093830286EE92E0909390029F
:1015700080938F0282EA92E090939202809391028C
:1015800085EC90E0909394028093930284EC90E039
:10159000909396028093950280EC90E0909398024D
:1015A0008093970281EC90E090939A028093990245
:1015B00086EC90E090939C0280939B0284E0809361
:1015C0009D0283E080939E0287E080939F0285E0E6
:1015D0008093A00281E08093A1020895CF92DF92D0
:1015E000EF92FF920F931F93CF93DF936C01EB0168
:1015F0007A01E60EF71E00E010E00BC06991D601FB
:10160000ED91FC910190F081E02DC6010995080F44
:10161000191FCE15DF0591F7C801DF91CF911F91FA
:101620000F91FF90EF90DF90CF900895AF92BF920F
:10163000CF92DF92EF92FF920F931F93CF93DF939E
:101640007C016B0100E010E0C0E0D0E011C0D701E8
:10165000ED91FC91A080B180B801C6010E94F80C08
:10166000682FC701F5010995C80FD91F0F5F1F4FDC
:10167000D60114968D919C9115970817190738F388
:10168000CE01DF91CF911F910F91FF90EF90DF90EE
:10169000CF90BF90AF900895DC01ED91FC91019047
:1016A000F081E02D09940F931F93CF93DF93EC010A
:1016B0006DE00E944C0B8C016AE0CE010E944C0B45
:1016C0009C01200F311FC901DF91CF911F910F9114
:1016D00008950F931F93CF93DF93EC010E94160B95
:1016E0008C01CE010E94530B9C01200F311FC901B8
:1016F000DF91CF911F910F910895FC01808191811D
:101700000C946B0FCF93DF93EC0188819981009744
:1017100011F00E946B0F198218821D821C821B829D
:101720001A82DF91CF9108950F931F93CF93DF9388
:10173000EC018B016F5F7F4F888199810E940710B8
:10174000009731F0998388831B830A8381E001C06D
:1017500080E0DF91CF911F910F910895CF93DF9398
:10176000EC0188819981892B31F08A819B818617D0
:10177000970708F00CC0CE010E94940B882349F013
:101780008C819D81892B19F4E881F981108281E097
:1017900001C080E0DF91CF910895EF92FF920F9307
:1017A0001F93CF93DF93EC017B018A01BA010E9462
:1017B000AE0B811104C0CE010E94820B07C01D83B5
:1017C0000C83B701888199810E94D810CE01DF91E6
:1017D000CF911F910F91FF90EF900895DC0111962A
:1017E0001C921E9213961C921E92129715961C9292
:1017F0001E92149716961C926115710559F0DB0123
:101800000D900020E9F7AD0141505109461B570BDF
:101810000C94CD0B0895CF93DF93EC01FB01861759
:10182000970761F0608171816115710529F044812C
:1018300055810E94CD0B02C00E94820BCE01DF9128
:10184000CF910895FC0111821082138212821582B9
:10185000148216820C940B0CCF93DF93D82FC92FD0
:101860006115710561F0DB010D900020E9F7AD0114
:1018700041505109461B570B0E94CD0B02C00E94DC
:10188000820B8D2F9C2FDF91CF9108950F931F9383
:10189000CF93DF93CDB7DEB762970FB6F894DEBF74
:1018A0000FBECDBF8C01CB01F801118210821382D3
:1018B000128215821482168250E0BE016F5F7F4F44
:1018C0000E94DF10BE016F5F7F4FC8010E942C0C89
:1018D00062960FB6F894DEBF0FBECDBFDF91CF91F9
:1018E0001F910F910895EF92FF920F931F93CF9343
:1018F000DF93EC017B010C811D816115710511F4F1
:1019000080E016C04115510591F0040F151FB80174
:101910000E94AE0B8823A1F3288139818C819D819F
:10192000B701820F931F0E94D8101D830C8381E0A2
:10193000DF91CF911F910F91FF90EF900895EF925B
:10194000FF920F931F93CF93DF93CDB7DEB7279707
:101950000FB6F894DEBF0FBECDBF7C01CB014AE0CD
:1019600050E08E010F5F1F4FB8010E94DF10F80199
:1019700001900020E9F7AF0141505109401B510B84
:10198000B801C7010E94730C27960FB6F894DEBF0A
:101990000FBECDBFDF91CF911F910F91FF90EF90C0
:1019A0000895CF93DF93D82FC92FFB014481558130
:1019B000608171810E94730C811104C08D2F9C2F56
:1019C0000E94820B8D2F9C2FDF91CF910895CF9392
:1019D000DF93D82FC92F0E949F0C811104C08D2F37
:1019E0009C2F0E94820B8D2F9C2FDF91CF91089509
:1019F000FC01248135816217730748F4808191814D
:101A0000009729F0FC01E60FF71F8081089580E020
:101A100008955058BB27AA270ED0B4C0A5D030F0E7
:101A2000AAD020F031F49F3F11F41EF49AC00EF4B6
:101A3000E095E7FB90C0E92FB6D080F3BA176207B4
:101A400073078407950718F071F49EF5CEC00EF465
:101A5000E0950B2EBA2FA02D0B01B90190010C01BE
:101A6000CA01A0011124FF27591B99F0593F50F4D6
:101A7000503E68F11A16F040A22F232F342F44272E
:101A8000585FF3CF469537952795A795F040539526
:101A9000C9F77EF41F16BA0B620B730B840BBAF0F6
:101AA0009150A1F0FF0FBB1F661F771F881FC2F761
:101AB0000EC0BA0F621F731F841F48F48795779575
:101AC0006795B795F7959E3F08F0B3CF9395880F2C
:101AD00008F09927EE0F979587950895E89409C027
:101AE00097FB3EF490958095709561957F4F8F4F51
:101AF0009F4F9923A9F0F92F96E9BB279395F69567
:101B0000879577956795B795F111F8CFFAF4BB0FE4
:101B100011F460FF1BC06F5F7F4F8F4F9F4F16C048
:101B2000882311F096E911C0772321F09EE8872FD2
:101B3000762F05C0662371F096E8862F70E060E08E
:101B40002AF09A95660F771F881FDAF7880F969507
:101B5000879597F9089597F99F6780E870E060E0AE
:101B600008959FEF80EC089500240A941616170636
:101B700018060906089500240A941216130614067E
:101B800005060895092E0394000C11F4882352F0E1
:101B9000BB0F40F4BF2B11F460FF04C06F5F7F4F99
:101BA0008F4F9F4F089557FD9058440F551F59F080
:101BB0005F3F71F04795880F97FB991F61F09F3F3A
:101BC00079F087950895121613061406551FF2CF63
:101BD0004695F1DF08C0161617061806991FF1CFB3
:101BE00086957105610508940895E894BB276627DA
:101BF0007727CB0197F908950BD0C4CFB5DF28F034
:101C0000BADF18F0952309F0A6CFABCF1124EECFA1
:101C1000CADFA0F3959FD1F3950F50E0551F629F47
:101C2000F001729FBB27F00DB11D639FAA27F00D35
:101C3000B11DAA1F649F6627B00DA11D661F829F5C
:101C40002227B00DA11D621F739FB00DA11D621F41
:101C5000839FA00D611D221F749F3327A00D611D5E
:101C6000231F849F600D211D822F762F6A2F112440
:101C70009F5750408AF0E1F088234AF0EE0FFF1F93
:101C8000BB1F661F771F881F91505040A9F79E3FCA
:101C9000510570F060CFAACF5F3FECF3983EDCF3C4
:101CA000869577956795B795F795E7959F5FC1F707
:101CB000FE2B880F911D9695879597F9089597FBB0
:101CC000072E16F4009407D077FD09D00E94950ED8
:101CD00007FC05D03EF4909581959F4F089570952F
:101CE00061957F4F0895A1E21A2EAA1BBB1BFD012F
:101CF0000DC0AA1FBB1FEE1FFF1FA217B307E407EB
:101D0000F50720F0A21BB30BE40BF50B661F771F42
:101D1000881F991F1A9469F7609570958095909522
:101D20009B01AC01BD01CF010895AA1BBB1B51E172
:101D300007C0AA1FBB1FA617B70710F0A61BB70B3B
:101D4000881F991F5A95A9F780959095BC01CD01E0
:101D50000895EE0FFF1F0590F491E02D0994EF9286
:101D60000F931F93CF93C02F47FF02C034E101C0F0
:101D700034E0E42FFF27E7FDF095F7FF03C0F1956E
:101D8000E195F109E32E022F2E2F4C2F512F0E94A7
:101D900000118C2F912FCF911F910F91EF900895EB
:101DA0000F931F93CF93DF938230910510F482E05D
:101DB00090E0E0912C03F0912D0320E030E0C0E0B2
:101DC000D0E023C04081518148175907A8F0481737
:101DD000590761F482819381209719F09B838A834C
:101DE0002EC090932D0380932C0329C0211531051B
:101DF00029F04217530710F0A90102C0BE01DF010C
:101E000002811381EF019A01F8013097D9F621156B
:101E1000310509F1281B390B2430310590F4129655
:101E20008D919C9113976115710521F0FB019383AE
:101E3000828304C090932D0380932C03FD0132967E
:101E400044C0FD01E20FF31F8193919322503109A9
:101E50002D933C933AC020912A0330912B03232BDE
:101E600041F4209102013091030130932B03209320
:101E70002A0320910001309101012115310541F41F
:101E80002DB73EB74091040150910501241B350B3D
:101E9000E0912A03F0912B03E217F307A0F42E1B25
:101EA0003F0B2817390778F0AC014E5F5F4F2417BE
:101EB000350748F04E0F5F1F50932B0340932A03C2
:101EC0008193919302C0E0E0F0E0CF01DF91CF91E8
:101ED0001F910F910895EF92FF920F931F93CF934D
:101EE000DF93009709F48EC0DC01129713961C92C1
:101EF0001E921297E0902C03F0902D03E114F10450
:101F000089F42D913C911197280F391F80912A0354
:101F100090912B038217930789F5B0932B03A0931D
:101F20002A0370C0E70120E030E001C0EA01CA17CF
:101F3000DB0738F44A815B819E0141155105B1F7F9
:101F400022C0AC0142505109FA01D383C2830081FF
:101F50001181BC01600F711F6C177D0761F46881EE
:101F60007981600F711F6E5F7F4F718360836A811B
:101F70007B81738362832115310529F4B0932D038E
:101F8000A0932C033FC0F901B383A283E9014991D7
:101F90005991C40FD51FAC17BD0771F4DC019E9198
:101FA0008E91840F951F02969183808312968D9156
:101FB0009C91139793838283A0E0B0E002C0D70185
:101FC0007C01F701828193810097C9F7C7010296CE
:101FD00020813181820F931F20912A0330912B039E
:101FE0002817390779F4109729F410922D031092CD
:101FF0002C0304C013961C921E921297F0922B038E
:10200000E0922A03CDB7DEB7E6E00C948B13A0E094
:10201000B0E0EDE0F0E10C946913EC01009729F4D5
:10202000CB010E94D00EEC01B4C0DC01A60FB71F9B
:10203000FC013297AE17BF0718F4C0E0D0E0A9C08A
:102040000081118106171707B0F00530110508F45B
:10205000A0C0C80104978617970708F49AC00250D9
:102060001109061B170B0D931D9371836083CD011E
:102070000E946B0F8EC06B01C01AD10A7C01E00E6A
:10208000F11EE0912C03F0912D0320E030E080E080
:1020900090E048C0EE15FF05D1F580809180540195
:1020A00042E0A40EB11CAC14BD0488F17401EC181C
:1020B000FD08670122E0C20ED11C9E0122503109A9
:1020C00045E0C416D10478F04281538113965C93A5
:1020D0004E9312971196FC92EE92F90171836083F0
:1020E0003A2F2B2F09C00E5F1F4F080D191DD90164
:1020F0000D931C9332812381009721F0FC013283E0
:10210000238347C030932C0320932D0342C080814A
:1021100091812817390708F49C0152814381CF012E
:10212000E52FF42F309709F0B5CF80912A039091D5
:102130002B038E159F05F1F426173707D8F48091ED
:10214000000190910101009741F48DB79EB7209155
:10215000040130910501821B930BA817B90708F001
:102160006CCFB0932B03A0932A03FE0132977183A7
:1021700060830FC0CB010E94D00E7C01009709F450
:102180005CCFA801BE010E94CF10CE010E946B0F50
:10219000E701CE01CDB7DEB7ECE00C948513FB016F
:1021A000DC0102C001900D9241505040D8F70895D3
:1021B000FB01DC0101900D920020E1F70895FB0185
:1021C0009F01E8944230C4F04532B4F44A3029F417
:1021D00097FB1EF4909581959F4F642F77270E945F
:1021E000950E805D8A330CF0895D8193CB01009759
:1021F000A1F716F45DE251931082C9010C945313B8
:102200006F927F929F92AF92BF92CF92DF92EF92A6
:10221000FF920F931F93CF93DF93CDB7DEB729972C
:102220000FB6F894DEBF0FBECDBF6A01B22E102FDD
:102230000C3318F4F02EF39402C0ACE3FA2E0F2DF9
:1022400027E0AE014F5F5F4F0E947B12B9812B2FB9
:102250002970213031F0E1FC06C0E0FE06C0A0E2AA
:1022600005C0ADE203C0ABE201C0A0E0B3FF3DC0DA
:10227000AA2311F084E001C083E08B1510F4B81A92
:1022800001C0B12CE4FC0BC08B2DF60190E202C022
:10229000919381508111FCCFCB0CD11CB12CAA237E
:1022A00019F0F601A1936F01E2FE0DC08EE4D60194
:1022B0008C9391E411969C93119712968C93B3E0B2
:1022C000CB0ED11C09C08EE6F601808391E6918386
:1022D0008283F3E0CF0ED11C8B2DF60190E202C079
:1022E000919381508111FCCF40C0B2FF45C0AA2319
:1022F00011F084E001C083E08B1510F4B81A01C01E
:10230000B12CE4FC0BC08B2DF60190E202C091933E
:1023100081508111FCCFCB0CD11CB12CAA2319F018
:10232000F601A1936F01E2FE0EC089E4D6018C9301
:102330008EE411968C93119786E412968C93B3E0F9
:10234000CB0ED11C0AC089E6F60180838EE681831C
:1023500086E68283F3E0CF0ED11C8B2DF60190E24E
:1023600002C0919381508111FCCFF601EB0DF11D5C
:1023700010822EEF3FEFAAC001E0A11101C000E0E2
:10238000202F30E01816190624F4AC014F5F5F4F80
:1023900002C041E050E0420F531F112329F0612F8A
:1023A00070E06F5F7F4F02C060E070E0460F571F24
:1023B0006B2D70E04617570714F4B41A01C0B12C06
:1023C0003E2D3071E4FC0DC0E3FC0BC02B2DF6015B
:1023D00040E202C0419321502111FCCFCB0CD11C13
:1023E000B12C002319F0F601A1936F0131110BC03C
:1023F0002B2DF60130E302C0319321502111FCCF87
:10240000CB0CD11CB12CF80E3A81F0E1AF2EAB22EF
:10241000B4FF03C0313309F4FA941F142CF42F2DA8
:10242000293018F028E001C021E0AC0197FF02C07C
:1024300040E050E060E070E0EEE29E2E3C01621A67
:1024400071087C01E41AF50AFE013196EE0DFF1DBC
:10245000012F10E01195019511094F3F2FEF520701
:1024600019F4D6019D926D018417950754F06416F6
:1024700075063CF47F01E60EF71ED70111962C91EC
:1024800001C020E3415051096F5F7F4F4017510752
:1024900024F0D6012D936D01E0CF4817590739F488
:1024A000363320F4353319F4A11001C021E3F601CD
:1024B00021938B2DDF0190E202C09D938150811109
:1024C000FCCFEB0DF11D108220E030E0C901299610
:1024D0000FB6F894DEBF0FBECDBFDF91CF911F9135
:1024E0000F91FF90EF90DF90CF90BF90AF909F90B3
:1024F0007F906F900895283008F027E03327DA01A5
:10250000990F311D87FD916000966105710539F4C1
:1025100032602E5F3D9330E32A95E1F708959F3FA7
:1025200030F080387105610509F03C5F3C5F3D93F8
:10253000913008F08068911DDF93CF931F930F9324
:10254000FF92EF92192F987F9695E92F9695969581
:10255000E90FFF27E455FE4F99273327EE24FF2488
:10256000A701E70105900894079428F4360FE71EA9
:10257000F81E491F511D660F771F881F991F06946B
:10258000A1F70590079428F4E70EF81E491F561F7F
:10259000C11D770F881F991F661F0694A1F705902C
:1025A000079428F4F80E491F561FC71FD11D880F26
:1025B000991F661F771F0694A1F70590079420F4D2
:1025C000490F561FC71FD81F990F661F771F881FF7
:1025D0000694A9F784911095177041F0D695C79588
:1025E00057954795F794E7941A95C1F7E2E5F1E01E
:1025F00068941590159135916591959105907FE2BC
:102600007395E118F10A430B560BC90BD009C0F7BB
:10261000E10CF11E431F561FC91FD01D7EF47033FD
:1026200011F48A95E6CFE894015030F0080F0AF4CF
:102630000027021708F4202F2395022F7A3328F061
:1026400079E37D932A95E9F710C07D932A9589F661
:10265000069497956795379517951794E118F10AA1
:10266000430B560BC90BD00998F023957E917395B7
:102670007A3308F070E37C932013B8F77E91706191
:102680007D9330F0839571E37D9370E32A95E1F7B4
:102690001124EF90FF900F911F91CF91DF91992717
:1026A00087FD90950895DC01FC01672F71917723D8
:1026B000E1F7329704C07C916D9370836291AE17FD
:1026C000BF07C8F308952F923F924F925F926F9287
:1026D0007F928F929F92AF92BF92CF92DF92EF92B2
:1026E000FF920F931F93CF93DF93CDB7DEB7CA1B33
:1026F000DB0B0FB6F894DEBF0FBECDBF09942A885E
:10270000398848885F846E847D848C849B84AA8405
:10271000B984C884DF80EE80FD800C811B81AA8192
:10272000B981CE0FD11D0FB6F894DEBF0FBECDBF5D
:10273000ED01089512E0C0E5D2E004C0FE010E9460
:0E274000AB0E2296C235D107C9F7F894FFCF31
:10274E0000002E03200012001300140015000E00CE
:10275E000F001000110032003300340035002E003F
:10276E002F0030003100015B2B5D204163746976D0
:10277E00616E742076616C76756C612000436F6DAE
:10278E007074616E74206C697472657320647572F6
:10279E00616E742035206D696E7574732E2E2E2029
:1027AE004C69747265733A20003E3E3E2053276892
:1027BE006120726562757420756E20706F6C732067
:1027CE006465206C27656D6973736F722E204C697A
:1027DE00747265733A200026763D0026703D002601
:1027EE00743D0063616D70616E613D003E3E3E3E24
:1027FE003E3E3E3E3E3E436F6D616E646120656EB1
:10280E00766961646120616C205250493A2000293A
:10281E00002E20284C69747265733A20005B2B5D84
:10282E00204465736163746976616E742076616CA1
:10283E0076756C612000000000000A05EE0A570450
:10284E000A042D044804000000007009EE0A0B096A
:06285E003A091E095E09A3
:00000001FF
