:100000000C94CA010C94FB010C94FB010C94FB01B1
:100010000C94FB010C94FB010C94FB010C94FB0170
:100020000C94FB010C94AF060C94D7060C94FF06BD
:100030000C94FB010C94FB010C94FB010C94FB0150
:100040000C94FB010C94FB010C94FB010C94FB0140
:100050000C94FB010C94FB010C94FB010C94A00884
:100060000C94FB010C949D0B0C94710C0C94FB01F3
:100070000C94FB010C94FB010C94FB010C94FB0110
:100080000C94FB010C94FB010C94FB010C94FB0100
:100090000C94CA0B0C94B00C0C94FB010C94FB0157
:1000A0000C94FB010C94FB010C94FB010C94FB01E0
:1000B0000C94FB010C94FB010C94FB010C94FB01D0
:1000C0000C94FB010C94FB010C94FB010C94F70BBA
:1000D0000C94EF0C0C94FB010C94240C0C942E0D3E
:1000E0000C94FB0100C201000100110011000C0082
:1000F00000E100000A002500250021000096000014
:100100001900390039003600127A00001F0046003D
:10011000460044008070000022004D004D004A005F
:10012000004B00003600750075007200403800007A
:100130004A009C009C009900802500007200EC00A1
:10014000EC00E900C0120000E900DA01DA01D70191
:1001500060090000D701B603B603B303B004000082
:10016000B3036E076E076B072C010000DC0EC11D88
:10017000C11DBE1D0000090A02080B0C0D07060375
:10018000040100000000000000000000000000006A
:10019000000000000000000000000000000000005F
:1001A00011100F000000000000000000000000001F
:1001B00000000000000000000000010210202008E4
:1001C00008102040102040800201020108040201B2
:1001D0000102040810204080804020100804020121
:1001E000800402018040201008040201080402017A
:1001F0000102040810204080010204081020408001
:1002000005050505070508080808020202020A0A92
:1002100008080404040401010101010101010303B0
:10022000030303030303040707070C0C0C0C0C0C5B
:100230000C0C0202020206060606060606060B0B58
:100240000B0B0B0B0B0B00002000230026002900DA
:100250002C002F00320000010000030106010901FB
:1002600000002200250028002B002E003100340061
:1002700002010000050108010B010000210024001B
:1002800027002A002D003000330001010000040186
:1002900007010A0100407A10F35A00A0724E1809B3
:1002A0000010A5D4E80000E87648170000E40B54DD
:1002B000020000CA9A3B000000E1F50500008096AC
:1002C0009800000040420F000000A08601000000DE
:1002D000102700000000E803000000006400000098
:1002E00000000A00000000000100000000002C7661
:1002F000D888DC674F0823DFC1DFAE59E1B1B7967C
:10030000E5E3E453C63AE651997696E8E6C28426D8
:10031000EB898C9B62ED407C6FFCEFBC9C9F40F2B4
:10032000BAA56FA5F490055A2AF75C936B6CF96730
:100330006DC11BFCE0E40D47FEF520E6B500D0EDF5
:10034000902E0300943577050080841E080000205D
:100350004E0A000000C80C333333330F986E1283FB
:100360001141EF8D2114893BE65516CFFEE6DB18CF
:10037000D1844B381BF77C1D901DA4BBE424203294
:1003800084725E228100C9F124ECA1E53D27350588
:10039000ED0D3C0511241FBECFEFD1E2DEBFCDBF76
:1003A00000E00CBF13E0A0E0B2E0E0E3F1E300E026
:1003B0000BBF02C007900D92AC32B107D9F716E01F
:1003C000ACE2B3E001C01D92AF33B107E1F713E037
:1003D000C2E9D3E000E006C022970109FE010BBF8D
:1003E0000E945B13CE38D10780E00807A9F70E946E
:1003F000DB0A0C9486180C94000040E855E260E09B
:1004000070E08CEF93E00E946D0D40E855E260E0F3
:1004100070E086E393E00E94A50761E080912202EC
:100420000E94430A61E0809124020E94430A61E035
:10043000809126020E94430A61E0809128020E9476
:10044000430A60E080911A020E94430A60E08091B2
:100450001C020E94430A60E080911E020E94430A2F
:1004600060E0809120020C94430A0E94AE0925E0CE
:10047000AC01249FC001259F900D112497FF02C05D
:1004800081509C4FBC01672F770F770B6595659561
:10049000882777FD8095982F0E94061220E030E093
:1004A00040E85FE30E949F1120E030E040E85EE317
:1004B0000E9492122AE037ED43E25EE30E9492121C
:1004C00008950E94AE0925E0AC01249FC001259F3C
:1004D000900D112497FF02C081509C4FBC01672FE3
:1004E000770F770B65956595882777FD8095982F11
:1004F0000E94061220E030E040E85FE30E949F1176
:1005000020E030E040E85EE30E94921220E030E01C
:1005100040E752E40E94921208954F925F926F92C8
:100520007F928F929F92AF92BF92CF92DF92EF9283
:10053000FF920F931F93CF93DF93CDB7DEB7CE55C6
:10054000D1090FB6F894DEBF0FBECDBF7E018BE0A0
:10055000E80EF11C6BE272E0C7010E940B10B701BC
:100560008E010F5F1F4FC8010E943F1063E070E0D3
:10057000C8010E947D1161E472E00E946011BC011B
:100580008CEF93E00E94860FC8010E949A0FC7016A
:100590000E949A0F60E0809126020E947B0A0E94CE
:1005A000EA0860933203709333038093340390938B
:1005B000350310922D0310922C0310922E031092EB
:1005C0002F03109230031092310364E472E0C701EC
:1005D0000E940B1060910602709107028091080240
:1005E0009091090220E63AEE40E050E00E940913A3
:1005F00029013A015E0185E1A80EB11C2AE0B30190
:10060000A201C5010E9463106E018CE1C80ED11CCD
:1006100069E572E0C6010E940B10B601C8010E9494
:100620003F10B501C8010E944A11B7010E944A114A
:10063000BC018CEF93E00E94860FC8010E949A0FC4
:10064000C6010E949A0FC5010E949A0FC7010E941D
:100650009A0F28EE422E23E0522E612C712C902E00
:10066000812EA4C00E94EA08009132031091330346
:100670002091340330913503601B710B820B930B77
:1006800060932E0370932F03809330039093310374
:1006900080911E020E94B20A019709F082C0009167
:1006A0002C0310912D03065F1F4F10932D03009311
:1006B0002C036091060270910702809108029091CC
:1006C0000902A30192010E9409136F962CAF3DAF5E
:1006D0004EAF5FAF6F972AE06F964CAD5DAD6EADDC
:1006E0007FAD6F97C5010E94631060912E037091DA
:1006F0002F038091300390913103A30192010E9456
:100700002B136F962CAF3DAF4EAF5FAF6F972AE0C4
:100710006F964CAD5DAD6EAD7FAD6F97C6010E941B
:10072000911064E772E0CE0183960E940B10B6012F
:10073000CE0183960E944A1161E872E00E94601126
:10074000B5010E944A1163E872E00E946011BC0189
:10075000C7010E943F10B701892D982D0E943F10BC
:10076000B801892D982D0E947D11BC018CEF93E07A
:100770000E94860F892D982D0E949A0FC7010E9412
:100780009A0FCE0183960E949A0FC6010E949A0F7B
:10079000C5010E949A0F68E873E180E090E00E9432
:1007A000260960E080911E020E947B0A40912E0380
:1007B00050912F03609130037091310380910602B4
:1007C00090910702A0910802B091090248175907B9
:1007D0006A077B0708F446CF80910E0290910F02C2
:1007E0000E9461024B015C018091160290911702F8
:1007F0000E9435026B017C018E01055F1F4F22E0D4
:1008000046E0C501B4010E945F138E010F5F1F4FC8
:1008100022E046E0C701B6010E945F1360912C03FD
:1008200070912D034AE0CE0145960E94BF1069EAFF
:1008300072E0CE014C960E940B10B801CE018A9650
:100840000E940B106DEA72E0CE01C1960E940B105F
:10085000BE01655F7F4FCE01C8960E940B1061EB11
:1008600072E0CE01CF960E940B104AE063E070E088
:10087000CE018A5B9F4F0E94BF1065EB72E0CE01F4
:10088000835B9F4F0E940B10BE01635B7F4FCE01C5
:1008900083960E943F10BE016A5B7F4FCE01839614
:1008A0000E944A11BE01615C7F4F0E944A11BE0145
:1008B000685C7F4F0E944A11BE016F5C7F4F0E94AF
:1008C0004A11BE01665D7F4F0E944A11BE01645EFF
:1008D0007F4F0E944A11BE016B5E7F4F0E944A11FA
:1008E000BC01CE018C5A9F4F0E943F10CE018396CF
:1008F0000E949A0FCE01835B9F4F0E949A0FCE01F8
:100900008A5B9F4F0E949A0FCE01CF960E949A0F4A
:10091000CE01C8960E949A0FCE01C1960E949A0FEE
:10092000CE018A960E949A0FCE014C960E949A0F91
:10093000CE0145960E949A0F6EEB72E0CE0145966D
:100940000E940B10BE016B5E7F4FCE0183960E940A
:100950003F10BE016C5A7F4FCE0183960E944A1110
:10096000BC018CEF93E00E94860FCE0183960E941B
:100970009A0FCE0145960E949A0FBE016C5A7F4F86
:1009800086E393E00E94860F64EE72E0CE01459606
:100990000E940B1000912C0310912D0366EE72E063
:1009A000CE014C960E940B1062EF72E0CE018A9647
:1009B0000E940B10BE01665D7F4FCE0183960E94A0
:1009C0003F1063E070E0CE0183960E947D11BE016E
:1009D000645E7F4F0E944A11B8010E947D11BE01E2
:1009E0006B5E7F4F0E944A11BC018CEF93E00E9426
:1009F000860FCE0183960E949A0FCE018A960E949E
:100A00009A0FCE014C960E949A0FCE0145960E94F5
:100A10009A0F61E0809126020E947B0A8CEF93E09E
:100A20000E94700F60ED77E080E090E00E94260960
:100A3000CE018C5A9F4F0E949A0FC25ADF4F0FB6B9
:100A4000F894DEBF0FBECDBFDF91CF911F910F9104
:100A5000FF90EF90DF90CF90BF90AF909F908F90DE
:100A60007F906F905F904F90089520E04BE06AE098
:100A700086E393E00C94750786E393E00C94990861
:100A8000209194033091950328173907C1F4909170
:100A9000520380915303981791F0E0915203F0E0D4
:100AA000EC5AFC4F80812091520330E02F5F3F4F82
:100AB0002F73332720935203282F30E002C02FEFEB
:100AC0003FEFC901089520919403309195032817B1
:100AD000390781F49091520380915303981751F094
:100AE000E0915203F0E0EC5AFC4F2081332727FDC0
:100AF000309502C02FEF3FEFC90108952091940374
:100B0000309195032817390739F48FB7F89410926C
:100B10005303109252038FBF089520919403309194
:100B200095032817390779F48091530320915203D4
:100B300090E0805C9F4F821B910960E470E00E940E
:100B4000F5129C0102C020E030E0C9010895DC01EB
:100B50005196ED91FC915297208150968C91809501
:100B600082238083089520E001972FEF8F3F920723
:100B7000D9F70895209194033091950328173907E8
:100B800089F0FC01238D2E7F238F2FB7F8941092CC
:100B900053031092520390939503809394032FBFB5
:100BA00081E0089580E00895EF92FF920F931F93E4
:100BB000CF93DF93EC018B8DEE85FF859D8581FFC3
:100BC00004C08081892329F445C08081892309F0EC
:100BD00041C08B899C890E94B30508E010E0EE2497
:100BE000E394F12C8D899E890E94B305EE85FF85E3
:100BF00080819D85892311F0FE2803C08E2D80956C
:100C0000F822EE0C0150110969F78F89988D0E9426
:100C1000B3058B8D81FDF094809153032091520395
:100C200090E001968F73992730E08217930779F04F
:100C3000E0915303F0E0EC5AFC4FF08280915303B3
:100C400090E001968F7399278093530303C08B8D97
:100C500081608B8FDF91CF911F910F91FF90EF906B
:100C60000895611102C00C94A705DC015196ED9125
:100C7000FC915297208150968C91282B20830895C7
:100C8000DF92EF92FF920F931F93CF93DF93EC01CC
:100C9000E62E898D9A8D892B39F481E090E09B8333
:100CA0008A8320E030E049C0DFB6F8946B8D66950A
:100CB0006170CE010E943106898D9A8D05960E9441
:100CC000B3058B8D08E010E0FF24F39481FF17C07B
:100CD0008F2D8E2121F0CE010E94A70504C061E076
:100CE000CE010E943106898D9A8D0E94B305FF0CBA
:100CF0000150110969F7CE010E94A70517C08F2D79
:100D00008E2129F061E0CE010E94310603C0CE01A0
:100D10000E94A705898D9A8D0E94B305FF0C015092
:100D2000110969F761E0CE010E943106DFBE898DAD
:100D30009A8D0E94B30521E030E0C901DF91CF9187
:100D40001F910F91FF90EF90DF9008958091940391
:100D500090919503009711F00C94D40508951F927B
:100D60000F920FB60F9211240BB60F922F933F9351
:100D70004F935F936F937F938F939F93AF93BF93A3
:100D8000EF93FF930E94A606FF91EF91BF91AF9161
:100D90009F918F917F916F915F914F913F912F9193
:100DA0000F900BBE0F900FBE0F901F9018951F92C3
:100DB0000F920FB60F9211240BB60F922F933F9301
:100DC0004F935F936F937F938F939F93AF93BF9353
:100DD000EF93FF930E94A606FF91EF91BF91AF9111
:100DE0009F918F917F916F915F914F913F912F9143
:100DF0000F900BBE0F900FBE0F901F9018951F9273
:100E00000F920FB60F9211240BB60F922F933F93B0
:100E10004F935F936F937F938F939F93AF93BF9302
:100E2000EF93FF930E94A606FF91EF91BF91AF91C0
:100E30009F918F917F916F915F914F913F912F91F2
:100E40000F900BBE0F900FBE0F901F9018951F9321
:100E5000CF93DF93EC01162F61E0812F0E94430AAC
:100E600061E0812F0E947B0A812F90E0FC01E65413
:100E7000FE4FE491E88BFC01E050FE4FE491F0E07E
:100E8000EE0FFF1FE05AFD4F85919491898B9A8B4D
:100E9000DF91CF911F9108951F93CF93DF93EC01C2
:100EA000162F60E0812F0E94430A8B8D81FD04C0C4
:100EB00061E0812F0E947B0A1C87812F90E0FC015A
:100EC000E654FE4FE491ED87FC01E050FE4FE491C3
:100ED000F0E0EE0FFF1FEA5BFD4F859194918E8746
:100EE0009F87DF91CF911F910895FF920F931F93DA
:100EF000CF93DF93EC01F62E522F1B821A8208EE5D
:100F000013E020E030E00C831D832E833F838FE0CD
:100F100093E0998388831C8A1B8A1E8A1D8A188EF7
:100F20001F8A1A8E198E8B8D8E7F50FB81F98B8FC5
:100F3000642FCE010E9427076F2DCE01DF91CF9144
:100F40001F910F91FF900C944C07FF920F931F93EA
:100F5000CF93DF93EC011A8E198E188E1F8A1E8A8A
:100F60001D8AA0E0B0E02CE0F22EFA9EC001FB9EAC
:100F7000900D1124FC01EC51FF4F05911591259125
:100F800034910417150726073707E9F4FC01E851E7
:100F9000FF4F259134912B8B3C8BFC01E651FF4F89
:100FA000259134912D8B3E8BFC01E451FF4F25910F
:100FB00034912F8B388F82519F4FFC0185919491F2
:100FC000898F9A8F07C01196AC30B10509F0CDCF4B
:100FD0001C8A1B8A8F89988D892B09F45CC08C85AB
:100FE000982F9A50943040F0282F2253243020F02C
:100FF0002C50283008F04BC020916800943048F005
:10100000982F9253943028F08E53883010F484E057
:1010100001C081E0822B809368008C85982F9A50C4
:10102000943068F0282F2253243048F02C50283078
:10103000D0F5ADE6B0E039C0EDE6F0E004C0ABE6D7
:10104000B0E0EBE6F0E04081943018F490E00697D1
:101050000EC0823399F0833399F0843399F085334D
:1010600099F0982F9E53983078F490E0CE9721E035
:1010700030E001C0220F8A95EAF707C028E005C0DA
:1010800024E003C022E001C021E0242B2C93898DB1
:101090009A8D0E94B305CE01DF91CF911F910F91E0
:1010A000FF900C94BA05A0E0B0E0283028F2E0E010
:1010B000F0E0C9CFFC012485922F9A50943060F063
:1010C000822F8253843040F08C50883088F5EDE6D2
:1010D000F0E0ADE6B0E004C0EBE6F0E0ABE6B0E097
:1010E0004C91943020F430E0265031090FC0223367
:1010F000B1F02333B1F02433B1F02533B1F0822FB6
:101100008E53883090F430E02E53310981E090E026
:10111000022E01C0880F0A94EAF7809507C087EF76
:1011200005C08BEF03C08DEF01C08EEF8423808359
:1011300008952FE033E0FC01318320830C945A089A
:101140001F920F920FB60F9211242F933F938F93FC
:101150009F93AF93BF938091960390919703A09133
:101160009803B091990330919E03232F2D5F2D3763
:1011700020F40196A11DB11D05C0232F2A57029608
:10118000A11DB11D20939E03809396039093970316
:10119000A0939803B093990380919A0390919B0335
:1011A000A0919C03B0919D030196A11DB11D809358
:1011B0009A0390939B03A0939C03B0939D03BF91CC
:1011C000AF919F918F913F912F910F900FBE0F90F4
:1011D0001F9018950F931F938FB7F8940091960363
:1011E0001091970320919803309199038FBFB80114
:1011F000C9011F910F9108950F931F939FB7F89402
:1012000000919A0310919B0320919C0330919D03C0
:1012100086B5A89B06C08F3F21F00F5F1F4F2F4F51
:101220003F4F9FBF322F212F102F0027080F111D76
:10123000211D311D42E0000F111F221F331F4A954F
:10124000D1F7B801C9011F910F910895CF92DF9294
:10125000EF92FF92CF93DF936B017C010E94FC0819
:10126000EB010EC00E94FC086C1B7D0B683E7340B6
:1012700038F081E0C81AD108E108F108C851DC4F04
:10128000C114D104E104F10469F7DF91CF91FF901B
:10129000EF90DF90CF900895789484B5826084BDFC
:1012A00084B5816084BD85B5826085BD85B581606A
:1012B00085BDEEE6F0E0808181608083E1E8F0E0CA
:1012C0001082808182608083808181608083E0E8F9
:1012D000F0E0808181608083E1EBF0E080818460D8
:1012E0008083E0EBF0E0808181608083E1E9F0E0E1
:1012F000808182608083808181608083E0E9F0E08A
:10130000808181608083E1EAF0E080818260808377
:10131000808181608083E0EAF0E080818160808369
:10132000E1E2F1E08081826080838081816080835E
:10133000E0E2F1E0808181608083EAE7F0E0808193
:1013400084608083808182608083808181608083EB
:101350008081806880831092C1000895863308F0F0
:10136000865320917B00982F9870277F922B909323
:101370007B00877020912A0240E4249F9001112471
:10138000822B80937C0080917A00806480937A0025
:1013900080917A0086FDFCCF209178003091790011
:1013A000932F80E0AC01422B9A01C9010895893046
:1013B00009F443C088F4843029F138F4823059F1BB
:1013C000E8F4813009F05EC023C0873061F188F510
:1013D000863009F057C023C08D3009F440C020F496
:1013E0008B30A9F1C0F52DC0803109F442C08131A4
:1013F00009F443C08F3009F045C037C080918000A8
:101400008F7703C0809180008F7D80938000089546
:1014100084B58F7702C084B58F7D84BD0895809197
:10142000B0008F7703C08091B0008F7D8093B000B3
:101430000895809190008F7707C0809190008F7DF4
:1014400003C080919000877F8093900008958091E1
:10145000A0008F7707C08091A0008F7D03C080918E
:10146000A000877F8093A0000895809120018F774E
:1014700007C0809120018F7D03C080912001877F6C
:10148000809320010895CF93DF9390E0FC01E65410
:10149000FE4F4491FC01E050FE4F8491882341F1BE
:1014A00090E0880F991FFC01E658FD4F259134917B
:1014B000D901805A9D4FFC0185919491C82FD92F55
:1014C0009FB7F8948C91611106C0409584238C934A
:1014D0008881842308C0623041F4242F2095822320
:1014E0008C938881842B888302C0842B8C939FBF2C
:1014F000DF91CF9108950F931F93CF93DF931F92A6
:10150000CDB7DEB7282F30E0F901EC58FE4F8491BB
:10151000F901E654FE4F1491F901E050FE4F049199
:101520000023D1F0882321F069830E94D7096981C3
:10153000E02FF0E0EE0FFF1FE05AFD4F85919491F0
:10154000DC019FB7F8948C91611103C01095812341
:1015500001C0812B8C939FBF0F90DF91CF911F9182
:101560000F910895CF93DF93282F30E0F901EC58C5
:10157000FE4F8491F901E654FE4FD491F901E050F9
:10158000FE4FC491CC2389F081110E94D709EC2F22
:10159000F0E0EE0FFF1FEA5BFD4F85919491DC01B7
:1015A0008C918D2321E030E011F420E030E0C9017E
:1015B000DF91CF9108950E944C090E94FD01C0E582
:1015C000DCE00E948D022097E1F30E94500CF9CFDD
:1015D000FC0184859585FC01E05CFF4F2081318111
:1015E000FC01EE5BFF4F80819181281B390B2F732B
:1015F0003327C9010895FC0184859585FC01E05CD1
:10160000FF4F40815181FC01EE5BFF4F2081318112
:101610004217530741F00190F081E02DE80FF91FC8
:10162000208130E002C02FEF3FEFC9010895FC0197
:1016300084859585FC01E05CFF4F40815181FC0170
:10164000EE5BFF4F208131814217530781F0A0816B
:10165000B181A80FB91F8C91208131812F5F3F4F3D
:101660002F73332731832083282F30E002C02FEFE0
:101670003FEFC9010895FC0186859785FC01E05C78
:10168000FF4FDC01AE5BBF4F408151812D913C91FA
:10169000119742175307C1F70895CF93DF93FC01C9
:1016A00086859785DC01A05CBF4F2D913C911197F9
:1016B0002F5F3F4F2F733327EC01CE5BDF4F488105
:1016C000598124173507D9F30D90BC91A02DA80F8F
:1016D000B91F6C93A685B785A05CBF4F11963C934C
:1016E0002E93A689B7892C9181E090E0058C02C0E9
:1016F000880F991F0A94E2F7282B2C9381E090E041
:10170000DF91CF910895FB01E05CFF4F2081318193
:101710002F5F3F4F2F733327DB01AE5BBF4F4D91E0
:101720005C912417350739F0A081B181A60FB71F4E
:101730008C9331832083089508951F920F920FB6E2
:101740000F9211240BB60F922F933F934F935F93F9
:101750006F937F938F939F93AF93BF93EF93FF9379
:101760008091C60067EF75E00E94830BFF91EF91B7
:10177000BF91AF919F918F917F916F915F914F91A9
:101780003F912F910F900BBE0F900FBE0F901F90A7
:10179000189508951F920F920FB60F9211240BB651
:1017A0000F922F933F934F935F936F937F938F93FA
:1017B0009F93AF93BF93EF93FF938091CE006FE61B
:1017C00075E00E94830BFF91EF91BF91AF919F91C4
:1017D0008F917F916F915F914F913F912F910F90DA
:1017E0000BBE0F900FBE0F901F90189508951F927B
:1017F0000F920FB60F9211240BB60F922F933F93B7
:101800004F935F936F937F938F939F93AF93BF9308
:10181000EF93FF938091D60067EE74E00E94830BF4
:10182000FF91EF91BF91AF919F918F917F916F91B8
:101830005F914F913F912F910F900BBE0F900FBE74
:101840000F901F90189508951F920F920FB60F9248
:1018500011240BB60F922F933F934F935F936F9387
:101860007F938F939F93AF93BF93EF93FF93809159
:1018700036016FE574E00E94830BFF91EF91BF91F9
:10188000AF919F918F917F916F915F914F913F9118
:101890002F910F900BBE0F900FBE0F901F901895B9
:1018A0008CEF93E00E94E80A892B11F00E949C0BB8
:1018B0008DED93E00E94E80A892B11F00E94C90B7C
:1018C0008EEB93E00E94E80A892B11F00E94F60B40
:1018D0008FE993E00E94E80A892B11F00C94230C05
:1018E00008951F920F920FB60F9211240BB60F920C
:1018F0002F933F938F939F93EF93FF932091F30543
:101900003091F4058091F5059091F6052817390777
:1019100031F48091C1008F7D8093C10014C0E091AB
:10192000F505F091F605ED54FA4F20818091F5050B
:101930009091F60501968F7399279093F605809301
:10194000F5052093C600FF91EF919F918F913F91F4
:101950002F910F900BBE0F900FBE0F901F901895F8
:101960001F920F920FB60F9211240BB60F922F9366
:101970003F938F939F93EF93FF9320916B0530914B
:101980006C0580916D0590916E052817390731F42B
:101990008091C9008F7D8093C90014C0E0916D05CE
:1019A000F0916E05E55DFA4F208180916D05909173
:1019B0006E0501968F73992790936E0580936D0540
:1019C0002093CE00FF91EF919F918F913F912F91A6
:1019D0000F900BBE0F900FBE0F901F9018951F9287
:1019E0000F920FB60F9211240BB60F922F933F93C5
:1019F0008F939F93EF93FF932091E3043091E4043E
:101A00008091E5049091E6042817390731F480911C
:101A1000D1008F7D8093D10014C0E091E504F09156
:101A2000E604ED55FB4F20818091E5049091E6049A
:101A300001968F7399279093E6048093E504209391
:101A4000D600FF91EF919F918F913F912F910F9031
:101A50000BBE0F900FBE0F901F9018951F920F9204
:101A60000FB60F9211240BB60F922F933F938F93C3
:101A70009F93EF93FF9320915B0430915C048091DE
:101A80005D0490915E042817390731F4809131018B
:101A90008F7D8093310114C0E0915D04F0915E046C
:101AA000E55EFB4F208180915D0490915E0401967C
:101AB0008F73992790935E0480935D042093360181
:101AC000FF91EF919F918F913F912F910F900BBEBE
:101AD0000F900FBE0F901F901895CF92DF92EF924C
:101AE000FF92CF93DF93EC016A017B01411581EEF8
:101AF000580761057105F9F0EC89FD8981E090E0F6
:101B00000E8C02C0880F991F0A94E2F7808360E070
:101B100079E08DE390E0A70196010E94091321501E
:101B20003109410951095695479537952795211552
:101B300080E1380798F0EC89FD89108260E874E84C
:101B40008EE190E0A70196010E940913215031090E
:101B5000410951095695479537952795E889F9899F
:101B60003083EA89FB892083EE89FF89408181E007
:101B700090E09C010A8C02C0220F331F0A94E2F706
:101B8000422B4083EE89FF8940819C010B8C02C06F
:101B9000220F331F0A94E2F7422B4083EE89FF891C
:101BA00040819C010C8C02C0220F331F0A94E2F783
:101BB000422B4083EE89FF8920810D8C02C0880F63
:101BC000991F0A94E2F7809582238083DF91CF9159
:101BD000FF90EF90DF90CF900895CF931092FF0386
:101BE0001092FE0388EE93E0A0E0B0E08093000442
:101BF00090930104A0930204B09303042FE133E017
:101C00003093FD032093FC0347EF55E05093090404
:101C10004093080443EB55E050930B0440930A04AF
:101C200045EC50E050930D0440930C0444EC50E01C
:101C300050930F0440930E0440EC50E05093110475
:101C40004093100441EC50E050931304409312046D
:101C500046EC50E05093150440931404C4E0C09344
:101C60001604F3E0F0931704E7E0E093180475E03E
:101C70007093190461E060931A041092E0031092CB
:101C8000DF038093E1039093E203A093E303B09317
:101C9000E4033093DE032093DD034FE655E05093D9
:101CA000EA034093E9034BE255E05093EC03409381
:101CB000EB034DEC50E05093EE034093ED034CECFE
:101CC00050E05093F0034093EF0348EC50E0509302
:101CD000F2034093F10349EC50E05093F403409336
:101CE000F3034EEC50E05093F6034093F503C0939A
:101CF000F703F093F803E093F9037093FA0360930A
:101D0000FB031092C1031092C0038093C20390930F
:101D1000C303A093C403B093C5033093BF032093C0
:101D2000BE0347EE54E05093CB034093CA0343EA0B
:101D300054E05093CD034093CC0345ED50E05093D5
:101D4000CF034093CE0344ED50E05093D103409332
:101D5000D00340ED50E05093D3034093D20341EDC4
:101D600050E05093D5034093D40346ED50E0509398
:101D7000D7034093D603C093D803F093D903E093DD
:101D8000DA037093DB036093DC031092A2031092DA
:101D9000A1038093A3039093A403A093A503B093FE
:101DA000A6033093A00320939F038FE594E09093C4
:101DB000AC038093AB038BE194E09093AE038093EC
:101DC000AD0385E391E09093B0038093AF0384E388
:101DD00091E09093B2038093B10380E391E09093FC
:101DE000B4038093B30381E391E09093B6038093AF
:101DF000B50386E391E09093B8038093B703C09353
:101E0000B903F093BA03E093BB037093BC036093F0
:101E1000BD03CF910895CF92DF92EF92FF920F937F
:101E20001F93CF93DF936C01EB017A01E60EF71E4F
:101E300000E010E00BC06991D601ED91FC9101909A
:101E4000F081E02DC6011995080F191FCE15DF0589
:101E500091F7C801DF91CF911F910F91FF90EF9003
:101E6000DF90CF900895AF92BF92CF92DF92EF9222
:101E7000FF920F931F93CF93DF937C016B0100E0E0
:101E800010E0C0E0D0E011C0D701ED91FC91A0803E
:101E9000B180B801C6010E948E11682FC701F501FB
:101EA0001995C80FD91F0F5F1F4FD60114968D913A
:101EB0009C9115970817190738F3CE01DF91CF9140
:101EC0001F910F91FF90EF90DF90CF90BF90AF9058
:101ED0000895DC01ED91FC910190F081E02D1994C1
:101EE0000F931F93CF93DF93EC016DE00E94690F76
:101EF0008C016AE0CE010E94690F9C01200F311F06
:101F0000C901DF91CF911F910F9108950F931F93F6
:101F1000CF93DF93EC010E94330F8C01CE010E941E
:101F2000700F9C01200F311FC901DF91CF911F91CC
:101F30000F910895FC01808191810C941B14CF9323
:101F4000DF93EC0188819981009711F00E941B14A6
:101F5000198218821D821C821B821A82DF91CF9106
:101F600008950F931F93CF93DF93EC018B016F5F65
:101F70007F4F888199810E94B914009731F099832D
:101F800088831B830A8381E001C080E0DF91CF91C9
:101F90001F910F910895CF93DF93EC018881998170
:101FA000892B31F08A819B818617970708F00CC036
:101FB000CE010E94B10F882349F08C819D81892B2D
:101FC00019F4E881F981108281E001C080E0DF919D
:101FD000CF910895EF92FF920F931F93CF93DF93CA
:101FE000EC017B018A01BA010E94CB0F811104C070
:101FF000CE010E949F0F07C01D830C83B70188810B
:1020000099810E94A215CE01DF91CF911F910F916E
:10201000FF90EF900895DC0111961C921E9213968A
:102020001C921E92129715961C921E921497169649
:102030001C926115710559F0DB010D900020E9F744
:10204000AD0141505109461B570B0C94EA0F0895FE
:10205000CF93DF93EC01FB018617970761F0608156
:1020600071816115710529F0448155810E94EA0F43
:1020700002C00E949F0FCE01DF91CF910895FC0115
:1020800011821082138212821582148216820C949D
:102090002810CF93DF93D82FC92F6115710561F0F8
:1020A000DB010D900020E9F7AD0141505109461BBD
:1020B000570B0E94EA0F02C00E949F0F8D2F9C2F8A
:1020C000DF91CF9108950F931F93CF93DF93CDB7F7
:1020D000DEB7A1970FB6F894DEBF0FBECDBF8C015F
:1020E000CB01BA01F801118210821382128215828B
:1020F0001482168230E0AE014F5F5F4F0E94FE15E2
:10210000BE016F5F7F4FC8010E944910A1960FB6B4
:10211000F894DEBF0FBECDBFDF91CF911F910F911D
:1021200008950F931F93CF93DF93CDB7DEB7A29798
:102130000FB6F894DEBF0FBECDBF8C01CB01BA0144
:10214000F801118210821382128215821482168283
:1021500030E0AE014F5F5F4F0E94CA15BE016F5F56
:102160007F4FC8010E944910A2960FB6F894DEBFB7
:102170000FBECDBFDF91CF911F910F9108950F93A7
:102180001F93CF93DF93CDB7DEB762970FB6F89466
:10219000DEBF0FBECDBF8C01CB01F80111821082D2
:1021A0001382128215821482168250E0BE016F5F84
:1021B0007F4F0E94A915BE016F5F7F4FC8010E942B
:1021C000491062960FB6F894DEBF0FBECDBFDF9107
:1021D000CF911F910F910895EF92FF920F931F934C
:1021E000CF93DF93EC017B010C811D81611571059B
:1021F00011F480E016C04115510591F0040F151F30
:10220000B8010E94CB0F8823A1F3288139818C81EA
:102210009D81B701820F931F0E94A2151D830C831D
:1022200081E0DF91CF911F910F91FF90EF90089582
:10223000EF92FF920F931F93CF93DF93CDB7DEB74B
:1022400027970FB6F894DEBF0FBECDBF7C01CB0140
:102250004AE050E08E010F5F1F4FB8010E94A915A0
:10226000F80101900020E9F7AF0141505109401BEE
:10227000510BB801C7010E94EC1027960FB6F894D5
:10228000DEBF0FBECDBFDF91CF911F910F91FF90A9
:10229000EF900895CF93DF93D82FC92FFB0144818E
:1022A0005581608171810E94EC10811104C08D2FD5
:1022B0009C2F0E949F0F8D2F9C2FDF91CF9108950F
:1022C000CF93DF93D82FC92F6115710569F0DB011A
:1022D0000D900020E9F7AD0141505109461B570B05
:1022E0000E94EC10811104C08D2F9C2F0E949F0F23
:1022F0008D2F9C2FDF91CF910895CF93DF93D82F0F
:10230000C92F0E941811811104C08D2F9C2F0E948B
:102310009F0F8D2F9C2FDF91CF910895FC01248179
:1023200035816217730748F480819181009729F005
:10233000FC01E60FF71F8081089580E00895505852
:10234000BB27AA270ED0B4C0A5D030F0AAD020F069
:1023500031F49F3F11F41EF49AC00EF4E095E7FBB0
:1023600090C0E92FB6D080F3BA17620773078407CD
:10237000950718F071F49EF5CEC00EF4E0950B2E83
:10238000BA2FA02D0B01B90190010C01CA01A001C7
:102390001124FF27591B99F0593F50F4503E68F122
:1023A0001A16F040A22F232F342F4427585FF3CF63
:1023B000469537952795A795F0405395C9F77EF434
:1023C0001F16BA0B620B730B840BBAF09150A1F07D
:1023D000FF0FBB1F661F771F881FC2F70EC0BA0F03
:1023E000621F731F841F48F4879577956795B7958B
:1023F000F7959E3F08F0B3CF9395880F08F0992783
:10240000EE0F979587950895E89409C097FB3EF4E1
:1024100090958095709561957F4F8F4F9F4F992331
:10242000A9F0F92F96E9BB279395F69587957795AF
:102430006795B795F111F8CFFAF4BB0F11F460FF6F
:102440001BC06F5F7F4F8F4F9F4F16C0882311F0C7
:1024500096E911C0772321F09EE8872F762F05C0DB
:10246000662371F096E8862F70E060E02AF09A9576
:10247000660F771F881FDAF7880F9695879597F96B
:10248000089597F99F6780E870E060E008959FEFF6
:1024900080EC089500240A941616170618060906FB
:1024A000089500240A9412161306140605060895CA
:1024B000092E0394000C11F4882352F0BB0F40F452
:1024C000BF2B11F460FF04C06F5F7F4F8F4F9F4F92
:1024D000089557FD9058440F551F59F05F3F71F014
:1024E0004795880F97FB991F61F09F3F79F087957B
:1024F0000895121613061406551FF2CF4695F1DF04
:1025000008C0161617061806991FF1CF8695710593
:10251000610508940895E894BB2766277727CB01C7
:1025200097F908950BD0C4CFB5DF28F0BADF18F0C3
:10253000952309F0A6CFABCF1124EECFCADFA0F3CD
:10254000959FD1F3950F50E0551F629FF001729F48
:10255000BB27F00DB11D639FAA27F00DB11DAA1F67
:10256000649F6627B00DA11D661F829F2227B00DB4
:10257000A11D621F739FB00DA11D621F839FA00D3F
:10258000611D221F749F3327A00D611D231F849F8F
:10259000600D211D822F762F6A2F11249F575040E6
:1025A0008AF0E1F088234AF0EE0FFF1FBB1F661F81
:1025B000771F881F91505040A9F79E3F510570F03A
:1025C00060CFAACF5F3FECF3983EDCF3869577951A
:1025D0006795B795F795E7959F5FC1F7FE2B880F35
:1025E000911D9695879597F9089597FB072E16F4F8
:1025F000009407D077FD09D00E94471307FC05D04F
:102600003EF4909581959F4F0895709561957F4F09
:102610000895A1E21A2EAA1BBB1BFD010DC0AA1F23
:10262000BB1FEE1FFF1FA217B307E407F50720F03B
:10263000A21BB30BE40BF50B661F771F881F991FB6
:102640001A9469F760957095809590959B01AC01FF
:10265000BD01CF010895052E97FB16F4009407D015
:1026600057FD0DD00E94091307FC09D07EF4909508
:102670008095709561957F4F8F4F9F4F089550952E
:102680004095309521953F4F4F4F5F4F0895AA1BBE
:10269000BB1B51E107C0AA1FBB1FA617B70710F04D
:1026A000A61BB70B881F991F5A95A9F7809590957F
:1026B000BC01CD0108950790F691E02D1994EF9299
:1026C0000F931F93CF93C02F47FF02C034E101C087
:1026D00034E0E42FFF27E7FDF095F7FF03C0F19505
:1026E000E195F109E32E022F2E2F4C2F512F0E943E
:1026F00023168C2F912FCF911F910F91EF9008955A
:102700000F931F93CF93DF938230910510F482E0F3
:1027100090E0E0913D06F0913E0620E030E0C0E020
:10272000D0E023C04081518148175907A8F04817CD
:10273000590761F482819381209719F09B838A83E2
:102740002EC090933E0680933D0629C02115310589
:1027500029F04217530710F0A90102C0BE01DF01A2
:1027600002811381EF019A01F8013097D9F6211502
:10277000310509F1281B390B2430310590F41296EC
:102780008D919C9113976115710521F0FB01938345
:10279000828304C090933E0680933D06FD013296ED
:1027A00044C0FD01E20FF31F819391932250310940
:1027B0002D933C933AC020913B0630913C06232B4D
:1027C00041F4209102023091030230933C062093A1
:1027D0003B0620910002309101022115310541F4A0
:1027E0002DB73EB74091040250910502241B350BD2
:1027F000E0913B06F0913C06E217F307A0F42E1B94
:102800003F0B2817390778F0AC014E5F5F4F241754
:10281000350748F04E0F5F1F50933C0640933B0630
:102820008193919302C0E0E0F0E0CF01DF91CF917E
:102830001F910F910895EF92FF920F931F93CF93E3
:10284000DF93009709F48EC0DC01129713961C9257
:102850001E921297E0903D06F0903E06E114F104BE
:1028600089F42D913C911197280F391F80913B06D7
:1028700090913C068217930789F5B0933C06A0938C
:102880003B0670C0E70120E030E001C0EA01CA1752
:10289000DB0738F44A815B819E0141155105B1F790
:1028A00022C0AC0142505109FA01D383C283008196
:1028B0001181BC01600F711F6C177D0761F4688185
:1028C0007981600F711F6E5F7F4F718360836A81B2
:1028D0007B81738362832115310529F4B0933E0611
:1028E000A0933D063FC0F901B383A283E90149915A
:1028F0005991C40FD51FAC17BD0771F4DC019E912F
:102900008E91840F951F02969183808312968D91EC
:102910009C91139793838283A0E0B0E002C0D7011B
:102920007C01F701828193810097C9F7C701029664
:1029300020813181820F931F20913B0630913C060C
:102940002817390779F4109729F410923E0610924F
:102950003D0604C013961C921E921297F0923C06FC
:10296000E0923B06DF91CF911F910F91FF90EF9086
:1029700008958F929F92AF92BF92CF92DF92EF9283
:10298000FF920F931F93CF93DF93EC01009779F49D
:10299000CB01DF91CF911F910F91FF90EF90DF90CE
:1029A000CF90BF90AF909F908F900C948013DC01DC
:1029B000A60FB71FFC013297AE17BF0718F4C0E08F
:1029C000D0E0A9C00081118106171707B0F00530CB
:1029D000110508F4A0C0C80104978617970708F4EA
:1029E0009AC002501109061B170B0D931D9371839A
:1029F0006083CD010E941B148EC06B01C01AD10AE6
:102A00007C01E00EF11EE0913D06F0913E0620E0D3
:102A100030E080E090E048C0EE15FF05D1F5808001
:102A20009180540142E0A40EB11CAC14BD0488F1A5
:102A30007401EC18FD08670122E0C20ED11C9E0152
:102A40002250310945E0C416D10478F04281538107
:102A500013965C934E9312971196FC92EE92F901A5
:102A6000718360833A2F2B2F09C00E5F1F4F080D13
:102A7000191DD9010D931C9332812381009721F0F8
:102A8000FC013283238347C030933D0620933E06EA
:102A900042C0808191812817390708F49C01528136
:102AA0004381CF01E52FF42F309709F0B5CF809106
:102AB0003B0690913C068E159F05F1F426173707CB
:102AC000D8F48091000290910102009741F48DB7F3
:102AD0009EB72091040230910502821B930BA81728
:102AE000B90708F06CCFB0933C06A0933B06FE01FB
:102AF0003297718360830FC0CB010E9480137C01E9
:102B0000009709F45CCFA801BE010E949915CE017F
:102B10000E941B14E701CE01DF91CF911F910F910D
:102B2000FF90EF90DF90CF90BF90AF909F908F90ED
:102B30000895FB01DC0102C001900D92415050400C
:102B4000D8F70895FB01DC0101900D920020E1F718
:102B50000895FB019F01E8944230C4F04532B4F47B
:102B60004A3029F497FB1EF4909581959F4F642F6E
:102B700077270E944713805D8A330CF0895D81932B
:102B8000CB010097A1F716F45DE251931082C901C1
:102B90000C947618FA01CF93FF93EF93223044F10F
:102BA000253234F5C22FE894CA3049F497FB3EF43D
:102BB00090958095709561957F4F8F4F9F4F2C2FEB
:102BC000332744275527FF93EF930E940913EF9172
:102BD000FF91605D6A330CF0695D6193B901CA01D0
:102BE000605070408040904051F716F4CDE2C193A0
:102BF00010828F919F91CF910C947618FA01CF9308
:102C0000FF93EF932230CCF02532BCF4C22F2C2F4F
:102C1000332744275527FF93EF930E940913EF9121
:102C2000FF91605D6A330CF0695D6193B901CA017F
:102C3000605070408040904051F710828F919F917A
:102C4000CF910C9476186F927F929F92AF92BF9221
:102C5000CF92DF92EF92FF920F931F93CF93DF9368
:102C6000CDB7DEB729970FB6F894DEBF0FBECDBF44
:102C70006A01B22E102F0C3318F4F02EF39402C018
:102C8000ACE3FA2E0F2D27E0AE014F5F5F4F0E949D
:102C90009E17B9812B2F2970213031F0E1FC06C03D
:102CA000E0FE06C0A0E205C0ADE203C0ABE201C099
:102CB000A0E0B3FF3DC0AA2311F084E001C083E08F
:102CC0008B1510F4B81A01C0B12CE4FC0BC08B2D8D
:102CD000F60190E202C0919381508111FCCFCB0CA0
:102CE000D11CB12CAA2319F0F601A1936F01E2FEC9
:102CF0000DC08EE4D6018C9391E411969C931197AC
:102D000012968C93B3E0CB0ED11C09C08EE6F6016F
:102D1000808391E691838283F3E0CF0ED11C8B2DCB
:102D2000F60190E202C0919381508111FCCF40C026
:102D3000B2FF45C0AA2311F084E001C083E08B15E7
:102D400010F4B81A01C0B12CE4FC0BC08B2DF601B5
:102D500090E202C0919381508111FCCFCB0CD11C29
:102D6000B12CAA2319F0F601A1936F01E2FE0EC067
:102D700089E4D6018C938EE411968C93119786E4A6
:102D800012968C93B3E0CB0ED11C0AC089E6F601F3
:102D900080838EE6818386E68283F3E0CF0ED11CAA
:102DA0008B2DF60190E202C0919381508111FCCFEE
:102DB000F601EB0DF11D10822EEF3FEFAAC001E0EE
:102DC000A11101C000E0202F30E01816190624F4EC
:102DD000AC014F5F5F4F02C041E050E0420F531F14
:102DE000112329F0612F70E06F5F7F4F02C060E018
:102DF00070E0460F571F6B2D70E04617570714F40D
:102E0000B41A01C0B12C3E2D3071E4FC0DC0E3FCBE
:102E10000BC02B2DF60140E202C04193215021113D
:102E2000FCCFCB0CD11CB12C002319F0F601A193DF
:102E30006F0131110BC02B2DF60130E302C031932D
:102E400021502111FCCFCB0CD11CB12CF80E3A81B2
:102E5000F0E1AF2EAB22B4FF03C0313309F4FA9492
:102E60001F142CF42F2D293018F028E001C021E088
:102E7000AC0197FF02C040E050E060E070E0EEE29D
:102E80009E2E3C01621A71087C01E41AF50AFE01CB
:102E90003196EE0DFF1D012F10E0119501951109DE
:102EA0004F3F2FEF520719F4D6019D926D01841701
:102EB000950754F0641675063CF47F01E60EF71E84
:102EC000D70111962C9101C020E3415051096F5F49
:102ED0007F4F4017510724F0D6012D936D01E0CFAD
:102EE0004817590739F4363320F4353319F4A11053
:102EF00001C021E3F60121938B2DDF0190E202C096
:102F00009D9381508111FCCFEB0DF11D108220E0CB
:102F100030E0C90129960FB6F894DEBF0FBECDBFD1
:102F2000DF91CF911F910F91FF90EF90DF90CF90A5
:102F3000BF90AF909F907F906F900895283008F0D9
:102F400027E03327DA01990F311D87FD9160009644
:102F50006105710539F432602E5F3D9330E32A95A7
:102F6000E1F708959F3F30F080387105610509F061
:102F70003C5F3C5F3D93913008F08068911DDF938A
:102F8000CF931F930F93FF92EF92192F987F9695EF
:102F9000E92F96959695E90FFF27E251FD4F992766
:102FA0003327EE24FF24A701E70105900894079436
:102FB00028F4360FE71EF81E491F511D660F771FB4
:102FC000881F991F0694A1F70590079428F4E70E2F
:102FD000F81E491F561FC11D770F881F991F661FB6
:102FE0000694A1F70590079428F4F80E491F561F80
:102FF000C71FD11D880F991F661F771F0694A1F761
:103000000590079420F4490F561FC71FD81F990F2A
:10301000661F771F881F0694A9F784911095177073
:1030200041F0D695C79557954795F794E7941A952B
:10303000C1F7E4E9F2E06894159015913591659136
:10304000959105907FE27395E118F10A430B560BB9
:10305000C90BD009C0F7E10CF11E431F561FC91F51
:10306000D01D7EF4703311F48A95E6CFE8940150B8
:1030700030F0080F0AF40027021708F4202F2395D8
:10308000022F7A3328F079E37D932A95E9F710C06F
:103090007D932A9589F606949795679537951795A8
:1030A0001794E118F10A430B560BC90BD00998F09D
:1030B00023957E9173957A3308F070E37C93201307
:1030C000B8F77E9170617D9330F0839571E37D93C5
:1030D00070E32A95E1F71124EF90FF900F911F9173
:1030E000CF91DF91992787FD90950895DC01FC0130
:1030F000672F71917723E1F7329704C07C916D932C
:1031000070836291AE17BF07C8F3089513E0C2E958
:10311000D3E000E006C022970109FE010BBF0E9428
:103120005B13C439D10780E00807A9F7F894FFCFF3
:1031300000003F062000C02709003A003B003C0089
:103140003D003600370038003900320033003400CB
:1031500035002E002F0030003100015B2B5D204137
:1031600063746976616E742076616C76756C61202B
:10317000002F3400206D696E7574732E2E2E204C36
:1031800069747265733A2030005B2B5D20436F6D6C
:103190007074616E7420766F6C756D2064757261E9
:1031A0006E742000093E3E3E2074656D70733A20B7
:1031B000002F0020732E20532768612072656275EE
:1031C0007420756E612073656E79616C202D3E20D0
:1031D0004C69747265733A200026763D0026703D76
:1031E0000026743D0063616D70616E613D00093EB3
:1031F0003E3E20436F6D616E646120656E7669614D
:10320000646120616C20706F7274207365726961F3
:103210006C3A200029002E20284C69747265733A9C
:1032200020005B2B5D204465736163746976616E79
:10323000742076616C76756C61200000000000409F
:10324000060B0F8D05400563057E05000000004D4F
:0C3250000B0B0FE80A170BFB0A3B0B00EE
:00000001FF
